S00F000047443332463130332E7331391B
S3450800000000500020550100089D0100089D0100089D0100089D0100089D010008000000000000000000000000000000009D0100089D010008000000009D0100089D0100080E
S345080000409D0100089D0100089D0100089D0100089D0100089D0100089D0100089D0100089D0100089D0100089D0100089D0100089D0100089D0100089D0100089D01000812
S345080000809D0100089D0100089D0100089D0100089D0100089D0100089D0100089D0100089D0100089D0100089D0100089D0100089D0100089D0100089D0100089D010008D2
S345080000C09D0100089D0100089D0100089D0100089D0100089D0100089D0100089D0100089D0100089D0100089D0100080000000000000000000000000000000000000000D0
S309080001009D01000847
S3450800010410B5054C237833B9044B13B10448AFF300800123237010BD00000020000000000404000808B5034B1BB103490348AFF3008008BD00000000040000200404000852
S3450800014480B400AF00231846BD4680BC70470000002103E00B4B5B58435004310A480B4B42189A42F6D30A4A02E0002313600432084B9A42F9D300F017F800F01DF9FFF79F
S34508000184DFFF70472C0400080000002000000020000000201C000020FEE780B500AF00F07BF800BF80BD000080B582B000AF364B1B68354A43F00103136000BF324B1B689A
S345080001C403F00203002BF9D0304B1B682F4A43F08003136000237B6002E07B6801337B607B684F2BF9D9294B1B68284A43F09003136000237B6002E07B6801337B607B6809
S345080002044F2BF9D9214B1B68204A23F0030313601D4B1B681C4A23F0847323F4803313601A4B1A6819491A4B13400B60164B1B68154A23F0847323F480331360124B1B680D
S34508000244114A23F480231360104B1B680F4A23F00F6323F4702313600B4B1B680A4A23F0847323F4803313600A4B4FF41F021A60FFF793FF00214FF0006000F085F800BFF0
S345080002840837BD4680BD00BF00100240041002400C00FFE80810024080B483B000AF00237B6000233B60364B1B68354A43F4803313607B6801337B60314B1B6803F400332C
S345080002C43B603B68002B04D17B684FF6FF729342EFD12B4B1B6803F40033002B00D1FEE7284B284A1B681360264B264A1B681360244B1B68234A43F480631360214B1B68EF
S34508000304204A23F4403313601E4B1B681D4A43F4403313601B4B1B681A4A23F0036323F440231360174B1B68164A43F0026343F400231360124B1B68114A43F080731360A3
S3450800034400BF0F4B1B6803F00073002BF9D00D4B1B680C4A23F0030313600A4B1B68094A43F00203136000BF064B1B6803F00C03082BF9D100BF00BF0C37BD4680BC704799
S34508000384001002400410024080B483B000AF786039603B6823F0604323F07F0305497A6813438B60BFF34F8F00BF00BF0C37BD4680BC704700ED00E070B500260C4D0D4C8C
S345080003C4641BA410A64209D100F01AF800260A4D0A4C641BA410A64205D170BD55F8043B98470136EEE755F8043B98470136F2E7240400082404000824040008280400084D
S31D08000404F8B500BFF8BC08BC9E467047F8B500BFF8BC08BC9E467047D4
S30D0800041C28FDFF7F0100000026
S309080004242901000894
S3090800042805010008B4
S705080001559C
